8=FIX.4.2|9=100|35=A|34=1|49=MY-INITIATOR-CLIENT1|52=20230131-07:15:13.992|56=MY-ACCEPTOR-SERVICE|98=0|108=30|141=Y|10=088|
8=FIX.4.2|9=100|35=A|34=1|49=MY-ACCEPTOR-SERVICE|52=20230131-07:15:14.033|56=MY-INITIATOR-CLIENT1|98=0|108=30|141=Y|10=075|
8=FIX.4.2|9=99|35=A|34=1|49=MY-INITIATOR-CLIENT1|52=20230131-07:15:27.995|56=MY-ACCEPTOR-SERVICE|98=0|108=5|141=Y|10=019|
8=FIX.4.2|9=99|35=A|34=1|49=MY-ACCEPTOR-SERVICE|52=20230131-07:15:28.005|56=MY-INITIATOR-CLIENT1|98=0|108=5|141=Y|10=002|
8=FIX.4.2|9=82|35=0|34=2|49=MY-INITIATOR-CLIENT1|52=20230131-07:15:33.000|56=MY-ACCEPTOR-SERVICE|10=201|
8=FIX.4.2|9=82|35=0|34=2|49=MY-ACCEPTOR-SERVICE|52=20230131-07:15:33.004|56=MY-INITIATOR-CLIENT1|10=205|
8=FIX.4.2|9=137|35=D|34=3|49=MY-INITIATOR-CLIENT1|52=20230131-07:15:34.040|56=MY-ACCEPTOR-SERVICE|11=456|21=3|40=1|54=1|55=AJCB|60=20230131-07:15:34.040|10=081|
8=FIX.4.2|9=82|35=0|34=3|49=MY-ACCEPTOR-SERVICE|52=20230131-07:15:38.605|56=MY-INITIATOR-CLIENT1|10=218|
8=FIX.4.2|9=82|35=0|34=4|49=MY-INITIATOR-CLIENT1|52=20230131-07:15:39.988|56=MY-ACCEPTOR-SERVICE|10=234|
8=FIX.4.2|9=82|35=0|34=4|49=MY-ACCEPTOR-SERVICE|52=20230131-07:15:43.599|56=MY-INITIATOR-CLIENT1|10=227|
8=FIX.4.2|9=82|35=0|34=5|49=MY-INITIATOR-CLIENT1|52=20230131-07:15:44.993|56=MY-ACCEPTOR-SERVICE|10=227|
8=FIX.4.2|9=82|35=0|34=5|49=MY-ACCEPTOR-SERVICE|52=20230131-07:15:48.606|56=MY-INITIATOR-CLIENT1|10=222|
8=FIX.4.2|9=82|35=0|34=6|49=MY-INITIATOR-CLIENT1|52=20230131-07:15:49.995|56=MY-ACCEPTOR-SERVICE|10=235|
8=FIX.4.2|9=82|35=0|34=6|49=MY-ACCEPTOR-SERVICE|52=20230131-07:15:53.611|56=MY-INITIATOR-CLIENT1|10=215|
8=FIX.4.2|9=82|35=0|34=7|49=MY-INITIATOR-CLIENT1|52=20230131-07:15:54.998|56=MY-ACCEPTOR-SERVICE|10=235|
8=FIX.4.2|9=82|35=0|34=7|49=MY-ACCEPTOR-SERVICE|52=20230131-07:15:58.607|56=MY-INITIATOR-CLIENT1|10=226|
8=FIX.4.2|9=82|35=0|34=8|49=MY-INITIATOR-CLIENT1|52=20230131-07:15:59.995|56=MY-ACCEPTOR-SERVICE|10=238|
8=FIX.4.2|9=82|35=0|34=8|49=MY-ACCEPTOR-SERVICE|52=20230131-07:16:03.604|56=MY-INITIATOR-CLIENT1|10=215|
8=FIX.4.2|9=82|35=0|34=9|49=MY-INITIATOR-CLIENT1|52=20230131-07:16:05.000|56=MY-ACCEPTOR-SERVICE|10=208|
8=FIX.4.2|9=82|35=0|34=9|49=MY-ACCEPTOR-SERVICE|52=20230131-07:16:08.598|56=MY-INITIATOR-CLIENT1|10=233|
8=FIX.4.2|9=83|35=0|34=10|49=MY-INITIATOR-CLIENT1|52=20230131-07:16:10.000|56=MY-ACCEPTOR-SERVICE|10=245|
8=FIX.4.2|9=83|35=0|34=10|49=MY-ACCEPTOR-SERVICE|52=20230131-07:16:13.609|56=MY-INITIATOR-CLIENT1|10=007|
8=FIX.4.2|9=83|35=0|34=11|49=MY-INITIATOR-CLIENT1|52=20230131-07:16:15.989|56=MY-ACCEPTOR-SERVICE|10=021|
8=FIX.4.2|9=83|35=0|34=11|49=MY-ACCEPTOR-SERVICE|52=20230131-07:16:18.604|56=MY-INITIATOR-CLIENT1|10=008|
8=FIX.4.2|9=83|35=0|34=12|49=MY-INITIATOR-CLIENT1|52=20230131-07:16:21.000|56=MY-ACCEPTOR-SERVICE|10=249|
8=FIX.4.2|9=83|35=0|34=12|49=MY-ACCEPTOR-SERVICE|52=20230131-07:16:23.608|56=MY-INITIATOR-CLIENT1|10=009|
8=FIX.4.2|9=83|35=0|34=13|49=MY-INITIATOR-CLIENT1|52=20230131-07:16:25.992|56=MY-ACCEPTOR-SERVICE|10=018|
8=FIX.4.2|9=83|35=0|34=13|49=MY-ACCEPTOR-SERVICE|52=20230131-07:16:29.604|56=MY-INITIATOR-CLIENT1|10=012|
8=FIX.4.2|9=83|35=0|34=14|49=MY-INITIATOR-CLIENT1|52=20230131-07:16:30.986|56=MY-ACCEPTOR-SERVICE|10=018|
8=FIX.4.2|9=83|35=0|34=14|49=MY-ACCEPTOR-SERVICE|52=20230131-07:16:34.599|56=MY-INITIATOR-CLIENT1|10=022|
8=FIX.4.2|9=83|35=0|34=15|49=MY-INITIATOR-CLIENT1|52=20230131-07:16:35.986|56=MY-ACCEPTOR-SERVICE|10=024|
8=FIX.4.2|9=83|35=0|34=15|49=MY-ACCEPTOR-SERVICE|52=20230131-07:16:39.596|56=MY-INITIATOR-CLIENT1|10=025|
8=FIX.4.2|9=83|35=0|34=16|49=MY-INITIATOR-CLIENT1|52=20230131-07:16:40.988|56=MY-ACCEPTOR-SERVICE|10=023|
8=FIX.4.2|9=83|35=0|34=16|49=MY-ACCEPTOR-SERVICE|52=20230131-07:16:44.597|56=MY-INITIATOR-CLIENT1|10=023|
8=FIX.4.2|9=83|35=0|34=17|49=MY-INITIATOR-CLIENT1|52=20230131-07:16:46.000|56=MY-ACCEPTOR-SERVICE|10=005|
8=FIX.4.2|9=83|35=0|34=17|49=MY-ACCEPTOR-SERVICE|52=20230131-07:16:49.605|56=MY-INITIATOR-CLIENT1|10=019|
8=FIX.4.2|9=83|35=0|34=18|49=MY-INITIATOR-CLIENT1|52=20230131-07:16:50.995|56=MY-ACCEPTOR-SERVICE|10=024|
8=FIX.4.2|9=83|35=0|34=18|49=MY-ACCEPTOR-SERVICE|52=20230131-07:16:54.599|56=MY-INITIATOR-CLIENT1|10=028|
8=FIX.4.2|9=83|35=0|34=19|49=MY-INITIATOR-CLIENT1|52=20230131-07:16:55.993|56=MY-ACCEPTOR-SERVICE|10=028|
8=FIX.4.2|9=83|35=0|34=19|49=MY-ACCEPTOR-SERVICE|52=20230131-07:16:59.601|56=MY-INITIATOR-CLIENT1|10=018|
8=FIX.4.2|9=83|35=0|34=20|49=MY-INITIATOR-CLIENT1|52=20230131-07:17:01.001|56=MY-ACCEPTOR-SERVICE|10=248|
8=FIX.4.2|9=83|35=0|34=20|49=MY-ACCEPTOR-SERVICE|52=20230131-07:17:04.596|56=MY-INITIATOR-CLIENT1|10=014|
8=FIX.4.2|9=83|35=0|34=21|49=MY-INITIATOR-CLIENT1|52=20230131-07:17:07.000|56=MY-ACCEPTOR-SERVICE|10=254|
