8=FIX.4.4|9=76|35=A|34=1|49=SenderCompID|52=20230202-05:25:04.321|56=CNX|98=0|108=30|141=Y|10=135|
8=FIX.4.4|9=76|35=A|34=1|49=SenderCompID|52=20230202-05:25:05.320|56=CNX|98=0|108=30|141=Y|10=135|
8=FIX.4.4|9=76|35=A|34=1|49=SenderCompID|52=20230202-05:25:10.327|56=CNX|98=0|108=30|141=Y|10=138|
8=FIX.4.4|9=76|35=A|34=1|49=SenderCompID|52=20230202-05:25:15.336|56=CNX|98=0|108=30|141=Y|10=143|
8=FIX.4.4|9=76|35=A|34=1|49=SenderCompID|52=20230202-05:25:20.529|56=CNX|98=0|108=30|141=Y|10=143|
8=FIX.4.4|9=76|35=A|34=1|49=SenderCompID|52=20230202-05:27:09.043|56=CNX|98=0|108=30|141=Y|10=143|
8=FIX.4.4|9=76|35=A|34=1|49=SenderCompID|52=20230202-05:27:10.056|56=CNX|98=0|108=30|141=Y|10=139|
8=FIX.4.4|9=76|35=A|34=1|49=SenderCompID|52=20230202-05:27:15.048|56=CNX|98=0|108=30|141=Y|10=145|
8=FIX.4.4|9=76|35=A|34=1|49=SenderCompID|52=20230202-05:27:20.051|56=CNX|98=0|108=30|141=Y|10=135|
8=FIX.4.4|9=76|35=A|34=1|49=SenderCompID|52=20230202-05:27:25.231|56=CNX|98=0|108=30|141=Y|10=140|
8=FIX.4.4|9=76|35=A|34=1|49=SenderCompID|52=20230202-05:29:38.450|56=CNX|98=0|108=30|141=Y|10=149|
8=FIX.4.4|9=76|35=A|34=1|49=SenderCompID|52=20230202-05:29:39.460|56=CNX|98=0|108=30|141=Y|10=151|
8=FIX.4.4|9=76|35=A|34=1|49=SenderCompID|52=20230202-05:29:44.459|56=CNX|98=0|108=30|141=Y|10=155|
8=FIX.4.4|9=76|35=A|34=1|49=SenderCompID|52=20230202-05:29:49.450|56=CNX|98=0|108=30|141=Y|10=151|
8=FIX.4.4|9=76|35=A|34=1|49=SenderCompID|52=20230202-05:29:54.697|56=CNX|98=0|108=30|141=Y|10=160|
8=FIX.4.4|9=76|35=A|34=1|49=SenderCompID|52=20230202-05:37:23.999|56=CNX|98=0|108=30|141=Y|10=160|
8=FIX.4.4|9=76|35=A|34=1|49=SenderCompID|52=20230202-05:37:25.004|56=CNX|98=0|108=30|141=Y|10=139|
8=FIX.4.4|9=76|35=A|34=1|49=SenderCompID|52=20230202-05:37:30.017|56=CNX|98=0|108=30|141=Y|10=139|
8=FIX.4.4|9=76|35=A|34=1|49=SenderCompID|52=20230202-05:37:35.014|56=CNX|98=0|108=30|141=Y|10=141|
8=FIX.4.4|9=76|35=A|34=1|49=SenderCompID|52=20230202-05:37:40.161|56=CNX|98=0|108=30|141=Y|10=140|
8=FIX.4.4|9=105|35=A|34=1|49=SenderCompID|52=20230202-05:39:51.374|56=CNX|98=0|108=30|141=Y|553=PHSYJDEMOMD|554=Pnpl2022|10=026|
8=FIX.4.4|9=105|35=A|34=1|49=SenderCompID|52=20230202-05:39:52.389|56=CNX|98=0|108=30|141=Y|553=PHSYJDEMOMD|554=Pnpl2022|10=033|
8=FIX.4.4|9=105|35=A|34=1|49=SenderCompID|52=20230202-05:39:57.390|56=CNX|98=0|108=30|141=Y|553=PHSYJDEMOMD|554=Pnpl2022|10=030|
8=FIX.4.4|9=105|35=A|34=1|49=SenderCompID|52=20230202-05:40:02.386|56=CNX|98=0|108=30|141=Y|553=PHSYJDEMOMD|554=Pnpl2022|10=017|
8=FIX.4.4|9=105|35=A|34=1|49=SenderCompID|52=20230202-05:40:07.636|56=CNX|98=0|108=30|141=Y|553=PHSYJDEMOMD|554=Pnpl2022|10=020|
8=FIX.4.4|9=105|35=A|34=1|49=SenderCompID|52=20230202-05:40:27.674|56=CNX|98=0|108=30|141=Y|553=PHSYJDEMOMD|554=Pnpl2022|10=024|
8=FIX.4.4|9=105|35=A|34=1|49=SenderCompID|52=20230202-05:40:28.682|56=CNX|98=0|108=30|141=Y|553=PHSYJDEMOMD|554=Pnpl2022|10=024|
8=FIX.4.4|9=105|35=A|34=1|49=SenderCompID|52=20230202-05:40:33.689|56=CNX|98=0|108=30|141=Y|553=PHSYJDEMOMD|554=Pnpl2022|10=027|
8=FIX.4.4|9=105|35=A|34=1|49=SenderCompID|52=20230202-05:40:38.682|56=CNX|98=0|108=30|141=Y|553=PHSYJDEMOMD|554=Pnpl2022|10=025|
8=FIX.4.4|9=105|35=A|34=1|49=SenderCompID|52=20230202-05:40:43.893|56=CNX|98=0|108=30|141=Y|553=PHSYJDEMOMD|554=Pnpl2022|10=025|
8=FIX.4.4|9=105|35=A|34=1|49=SenderCompID|52=20230202-05:43:04.428|56=CNX|98=0|108=30|141=Y|553=PHSYJDEMOMD|554=Pnpl2022|10=019|
8=FIX.4.4|9=105|35=A|34=1|49=SenderCompID|52=20230202-05:43:05.432|56=CNX|98=0|108=30|141=Y|553=PHSYJDEMOMD|554=Pnpl2022|10=015|
8=FIX.4.4|9=105|35=A|34=1|49=SenderCompID|52=20230202-05:43:10.436|56=CNX|98=0|108=30|141=Y|553=PHSYJDEMOMD|554=Pnpl2022|10=015|
8=FIX.4.4|9=105|35=A|34=1|49=SenderCompID|52=20230202-05:43:15.441|56=CNX|98=0|108=30|141=Y|553=PHSYJDEMOMD|554=Pnpl2022|10=016|
8=FIX.4.4|9=105|35=A|34=1|49=SenderCompID|52=20230202-05:43:20.684|56=CNX|98=0|108=30|141=Y|553=PHSYJDEMOMD|554=Pnpl2022|10=021|
8=FIX.4.4|9=105|35=A|34=1|49=SenderCompID|52=20230202-05:47:15.774|56=CNX|98=0|108=30|141=Y|553=PHSYJDEMOMD|554=Pnpl2022|10=029|
8=FIX.4.4|9=105|35=A|34=1|49=SenderCompID|52=20230202-05:47:16.775|56=CNX|98=0|108=30|141=Y|553=PHSYJDEMOMD|554=Pnpl2022|10=031|
8=FIX.4.4|9=105|35=A|34=1|49=SenderCompID|52=20230202-05:47:21.790|56=CNX|98=0|108=30|141=Y|553=PHSYJDEMOMD|554=Pnpl2022|10=024|
8=FIX.4.4|9=105|35=A|34=1|49=SenderCompID|52=20230202-05:47:26.772|56=CNX|98=0|108=30|141=Y|553=PHSYJDEMOMD|554=Pnpl2022|10=029|
8=FIX.4.4|9=105|35=A|34=1|49=SenderCompID|52=20230202-05:47:31.954|56=CNX|98=0|108=30|141=Y|553=PHSYJDEMOMD|554=Pnpl2022|10=027|
8=FIX.4.4|9=105|35=A|34=1|49=SenderCompID|52=20230202-05:47:57.195|56=CNX|98=0|108=30|141=Y|553=PHSYJDEMOMD|554=Pnpl2022|10=032|
8=FIX.4.4|9=105|35=A|34=1|49=SenderCompID|52=20230202-05:47:58.205|56=CNX|98=0|108=30|141=Y|553=PHSYJDEMOMD|554=Pnpl2022|10=025|
8=FIX.4.4|9=105|35=A|34=1|49=SenderCompID|52=20230202-05:48:03.210|56=CNX|98=0|108=30|141=Y|553=PHSYJDEMOMD|554=Pnpl2022|10=012|
8=FIX.4.4|9=105|35=A|34=1|49=SenderCompID|52=20230202-05:48:08.205|56=CNX|98=0|108=30|141=Y|553=PHSYJDEMOMD|554=Pnpl2022|10=021|
8=FIX.4.4|9=105|35=A|34=1|49=SenderCompID|52=20230202-05:48:14.194|56=CNX|98=0|108=30|141=Y|553=PHSYJDEMOMD|554=Pnpl2022|10=025|
8=FIX.4.4|9=105|35=A|34=1|49=SenderCompID|52=20230202-05:49:13.291|56=CNX|98=0|108=30|141=Y|553=PHSYJDEMOMD|554=Pnpl2022|10=023|
8=FIX.4.4|9=105|35=A|34=1|49=SenderCompID|52=20230202-05:49:14.290|56=CNX|98=0|108=30|141=Y|553=PHSYJDEMOMD|554=Pnpl2022|10=023|
8=FIX.4.4|9=105|35=A|34=1|49=SenderCompID|52=20230202-05:49:19.308|56=CNX|98=0|108=30|141=Y|553=PHSYJDEMOMD|554=Pnpl2022|10=028|
8=FIX.4.4|9=105|35=A|34=1|49=SenderCompID|52=20230202-05:49:24.304|56=CNX|98=0|108=30|141=Y|553=PHSYJDEMOMD|554=Pnpl2022|10=020|
8=FIX.4.4|9=105|35=A|34=1|49=SenderCompID|52=20230202-05:49:29.523|56=CNX|98=0|108=30|141=Y|553=PHSYJDEMOMD|554=Pnpl2022|10=028|
8=FIX.4.4|9=89|35=A|34=1|49=SenderCompID|52=20230202-05:50:38.836|56=CNX|98=0|108=30|141=Y|554=Pnpl2022|10=215|
8=FIX.4.4|9=89|35=A|34=1|49=SenderCompID|52=20230202-05:50:39.855|56=CNX|98=0|108=30|141=Y|554=Pnpl2022|10=217|
8=FIX.4.4|9=89|35=A|34=1|49=SenderCompID|52=20230202-05:50:44.855|56=CNX|98=0|108=30|141=Y|554=Pnpl2022|10=213|
8=FIX.4.4|9=89|35=A|34=1|49=SenderCompID|52=20230202-05:50:49.849|56=CNX|98=0|108=30|141=Y|554=Pnpl2022|10=221|
8=FIX.4.4|9=89|35=A|34=1|49=SenderCompID|52=20230202-05:50:55.051|56=CNX|98=0|108=30|141=Y|554=Pnpl2022|10=203|
8=FIX.4.4|9=105|35=A|34=1|49=SenderCompID|52=20230202-05:51:14.038|56=CNX|98=0|108=30|141=Y|553=PHSYJDEMOMD|554=Pnpl2022|10=016|
8=FIX.4.4|9=105|35=A|34=1|49=SenderCompID|52=20230202-05:51:15.036|56=CNX|98=0|108=30|141=Y|553=PHSYJDEMOMD|554=Pnpl2022|10=015|
8=FIX.4.4|9=105|35=A|34=1|49=SenderCompID|52=20230202-05:51:20.642|56=CNX|98=0|108=30|141=Y|553=PHSYJDEMOMD|554=Pnpl2022|10=014|
8=FIX.4.4|9=105|35=A|34=1|49=SenderCompID|52=20230202-05:51:25.045|56=CNX|98=0|108=30|141=Y|553=PHSYJDEMOMD|554=Pnpl2022|10=016|
8=FIX.4.4|9=105|35=A|34=1|49=SenderCompID|52=20230202-05:51:30.277|56=CNX|98=0|108=30|141=Y|553=PHSYJDEMOMD|554=Pnpl2022|10=019|
