8=FIX.4.4|9=67|35=A|34=3|49=client|52=20230131-06:53:06.344|56=server|98=0|108=30|10=022|
8=FIX.4.4|9=67|35=A|34=2|49=server|52=20230131-06:53:06.362|56=client|98=0|108=30|10=021|
8=FIX.4.4|9=55|35=0|34=4|49=client|52=20230131-06:53:36.336|56=server|10=238|
8=FIX.4.4|9=55|35=0|34=3|49=server|52=20230131-06:53:36.967|56=client|10=247|
8=FIX.4.4|9=55|35=0|34=5|49=client|52=20230131-06:54:06.337|56=server|10=238|
8=FIX.4.4|9=55|35=0|34=4|49=server|52=20230131-06:54:06.972|56=client|10=242|
8=FIX.4.4|9=55|35=0|34=6|49=client|52=20230131-06:54:36.332|56=server|10=237|
8=FIX.4.4|9=55|35=0|34=5|49=server|52=20230131-06:54:36.978|56=client|10=252|
8=FIX.4.4|9=55|35=0|34=7|49=client|52=20230131-06:55:06.342|56=server|10=237|
8=FIX.4.4|9=55|35=0|34=6|49=server|52=20230131-06:55:07.976|56=client|10=250|
8=FIX.4.4|9=55|35=0|34=8|49=client|52=20230131-06:55:36.333|56=server|10=241|
8=FIX.4.4|9=55|35=0|34=7|49=server|52=20230131-06:55:37.975|56=client|10=253|
8=FIX.4.4|9=55|35=0|34=9|49=client|52=20230131-06:56:06.333|56=server|10=240|
8=FIX.4.4|9=55|35=0|34=8|49=server|52=20230131-06:56:07.976|56=client|10=253|
8=FIX.4.4|9=56|35=0|34=10|49=client|52=20230131-06:56:36.341|56=server|10=027|
8=FIX.4.4|9=55|35=0|34=9|49=server|52=20230131-06:56:37.975|56=client|10=000|
8=FIX.4.4|9=56|35=0|34=11|49=client|52=20230131-06:57:06.341|56=server|10=026|
8=FIX.4.4|9=56|35=0|34=10|49=server|52=20230131-06:57:07.979|56=client|10=043|
