8=FIX.4.4|9=67|35=A|34=1|49=client|52=20230130-09:12:23.482|56=server|98=0|108=30|10=019|
8=FIX.4.4|9=67|35=A|34=1|49=server|52=20230130-09:12:23.521|56=client|98=0|108=30|10=013|
8=FIX.4.4|9=97|35=D|34=2|49=client|52=20230130-09:12:24.503|56=server|11=342|40=1|54=1|60=20230130-09:12:24.503|10=168|
8=FIX.4.4|9=113|35=3|34=2|49=server|52=20230130-09:12:24.516|56=client|45=2|58=Required tag missing, field=55|371=55|372=D|373=1|10=179|
8=FIX.4.4|9=55|35=0|34=3|49=server|52=20230130-09:12:54.957|56=client|10=243|
8=FIX.4.4|9=55|35=0|34=3|49=client|52=20230130-09:12:54.960|56=server|10=237|
8=FIX.4.4|9=55|35=0|34=4|49=server|52=20230130-09:13:24.952|56=client|10=237|
8=FIX.4.4|9=55|35=0|34=4|49=client|52=20230130-09:13:24.957|56=server|10=242|
8=FIX.4.4|9=55|35=0|34=5|49=server|52=20230130-09:13:54.956|56=client|10=245|
8=FIX.4.4|9=55|35=0|34=5|49=client|52=20230130-09:13:54.960|56=server|10=240|
8=FIX.4.4|9=55|35=0|34=6|49=server|52=20230130-09:14:24.957|56=client|10=245|
8=FIX.4.4|9=55|35=0|34=6|49=client|52=20230130-09:14:24.958|56=server|10=246|
8=FIX.4.4|9=55|35=0|34=7|49=server|52=20230130-09:14:54.953|56=client|10=245|
8=FIX.4.4|9=55|35=0|34=7|49=client|52=20230130-09:14:54.957|56=server|10=249|
8=FIX.4.4|9=67|35=A|34=8|49=client|52=20230130-09:15:17.212|56=server|98=0|108=30|10=023|
8=FIX.4.4|9=67|35=A|34=8|49=server|52=20230130-09:15:17.232|56=client|98=0|108=30|10=025|
8=FIX.4.4|9=97|35=D|34=9|49=client|52=20230130-09:15:18.229|56=server|11=342|40=1|54=1|60=20230130-09:15:18.229|10=197|
8=FIX.4.4|9=113|35=3|34=9|49=server|52=20230130-09:15:18.231|56=client|45=9|58=Required tag missing, field=55|371=55|372=D|373=1|10=193|
8=FIX.4.4|9=56|35=0|34=10|49=server|52=20230130-09:15:48.950|56=client|10=033|
8=FIX.4.4|9=56|35=0|34=10|49=client|52=20230130-09:15:48.956|56=server|10=039|
