8=FIX.4.4|9=67|35=A|34=1|49=EXEC|52=20230130-04:58:49.503|56=CLIENTFIX|98=0|108=5|10=161|
8=FIX.4.4|9=67|35=A|34=1|49=CLIENTFIX|52=20230130-04:58:49.536|56=EXEC|98=0|108=5|10=167|
8=FIX.4.4|9=56|35=0|34=2|49=CLIENTFIX|52=20230130-04:58:54.665|56=EXEC|10=169|
8=FIX.4.4|9=56|35=0|34=2|49=EXEC|52=20230130-04:58:54.670|56=CLIENTFIX|10=165|
8=FIX.4.4|9=56|35=0|34=3|49=CLIENTFIX|52=20230130-04:58:59.660|56=EXEC|10=170|
8=FIX.4.4|9=56|35=0|34=3|49=EXEC|52=20230130-04:58:59.666|56=CLIENTFIX|10=176|
8=FIX.4.4|9=56|35=0|34=4|49=CLIENTFIX|52=20230130-04:59:04.659|56=EXEC|10=170|
8=FIX.4.4|9=56|35=0|34=4|49=EXEC|52=20230130-04:59:04.673|56=CLIENTFIX|10=166|
8=FIX.4.4|9=56|35=0|34=5|49=CLIENTFIX|52=20230130-04:59:09.661|56=EXEC|10=169|
8=FIX.4.4|9=56|35=0|34=5|49=EXEC|52=20230130-04:59:09.665|56=CLIENTFIX|10=173|
8=FIX.4.4|9=80|35=A|34=6|49=EXEC|52=20230130-05:15:26.351|56=CLIENTFIX|98=0|108=5|554=Pnpl2022|10=211|
8=FIX.4.4|9=80|35=A|34=7|49=EXEC|52=20230130-05:15:56.336|56=CLIENTFIX|98=0|108=5|554=Pnpl2022|10=218|
8=FIX.4.4|9=80|35=A|34=8|49=EXEC|52=20230130-05:16:27.331|56=CLIENTFIX|98=0|108=5|554=Pnpl2022|10=213|
8=FIX.4.4|9=80|35=A|34=9|49=EXEC|52=20230130-05:16:57.337|56=CLIENTFIX|98=0|108=5|554=Pnpl2022|10=223|
8=FIX.4.4|9=81|35=A|34=10|49=EXEC|52=20230130-05:17:28.333|56=CLIENTFIX|98=0|108=5|554=Pnpl2022|10=003|
8=FIX.4.4|9=81|35=A|34=11|49=EXEC|52=20230130-05:17:58.344|56=CLIENTFIX|98=0|108=5|554=Pnpl2022|10=009|
8=FIX.4.4|9=81|35=A|34=12|49=EXEC|52=20230130-05:18:29.344|56=CLIENTFIX|98=0|108=5|554=Pnpl2022|10=009|
8=FIX.4.4|9=81|35=A|34=13|49=EXEC|52=20230130-05:18:59.344|56=CLIENTFIX|98=0|108=5|554=Pnpl2022|10=013|
8=FIX.4.4|9=81|35=A|34=14|49=EXEC|52=20230130-05:19:30.340|56=CLIENTFIX|98=0|108=5|554=Pnpl2022|10=000|
8=FIX.4.4|9=81|35=A|34=15|49=EXEC|52=20230130-05:20:00.332|56=CLIENTFIX|98=0|108=5|554=Pnpl2022|10=247|
8=FIX.4.4|9=81|35=A|34=16|49=EXEC|52=20230130-05:20:31.339|56=CLIENTFIX|98=0|108=5|554=Pnpl2022|10=003|
8=FIX.4.4|9=81|35=A|34=17|49=EXEC|52=20230130-05:21:01.345|56=CLIENTFIX|98=0|108=5|554=Pnpl2022|10=255|
8=FIX.4.4|9=81|35=A|34=18|49=EXEC|52=20230130-05:21:32.344|56=CLIENTFIX|98=0|108=5|554=Pnpl2022|10=003|
8=FIX.4.4|9=81|35=A|34=19|49=EXEC|52=20230130-05:22:02.345|56=CLIENTFIX|98=0|108=5|554=Pnpl2022|10=003|
8=FIX.4.4|9=81|35=A|34=20|49=EXEC|52=20230130-05:22:33.334|56=CLIENTFIX|98=0|108=5|554=Pnpl2022|10=253|
8=FIX.4.4|9=81|35=A|34=21|49=EXEC|52=20230130-05:23:03.356|56=CLIENTFIX|98=0|108=5|554=Pnpl2022|10=000|
8=FIX.4.4|9=81|35=A|34=22|49=EXEC|52=20230130-05:23:34.336|56=CLIENTFIX|98=0|108=5|554=Pnpl2022|10=003|
8=FIX.4.4|9=81|35=A|34=23|49=EXEC|52=20230130-08:18:44.226|56=CLIENTFIX|98=0|108=5|554=Pnpl2022|10=010|
8=FIX.4.4|9=81|35=A|34=24|49=EXEC|52=20230130-08:19:14.204|56=CLIENTFIX|98=0|108=5|554=Pnpl2022|10=005|
8=FIX.4.4|9=68|35=A|34=25|49=EXEC|52=20230130-08:25:10.131|56=CLIENTFIX|98=0|108=5|10=199|
8=FIX.4.4|9=67|35=A|34=6|49=CLIENTFIX|52=20230130-08:25:10.163|56=EXEC|98=0|108=5|10=154|
8=FIX.4.4|9=65|35=2|34=7|49=CLIENTFIX|52=20230130-08:25:10.165|56=EXEC|7=6|16=0|10=033|
8=FIX.4.4|9=99|35=4|34=6|43=Y|49=EXEC|52=20230130-08:25:10.170|56=CLIENTFIX|122=20230130-08:25:10.170|36=26|123=Y|10=212|
8=FIX.4.4|9=56|35=0|34=8|49=CLIENTFIX|52=20230130-08:25:15.322|56=EXEC|10=160|
8=FIX.4.4|9=57|35=0|34=26|49=EXEC|52=20230130-08:25:15.327|56=CLIENTFIX|10=214|
8=FIX.4.4|9=56|35=0|34=9|49=CLIENTFIX|52=20230130-08:25:20.320|56=EXEC|10=155|
8=FIX.4.4|9=57|35=0|34=27|49=EXEC|52=20230130-08:25:20.323|56=CLIENTFIX|10=207|
8=FIX.4.4|9=57|35=0|34=10|49=CLIENTFIX|52=20230130-08:25:25.316|56=EXEC|10=206|
8=FIX.4.4|9=57|35=0|34=28|49=EXEC|52=20230130-08:25:25.317|56=CLIENTFIX|10=216|
8=FIX.4.4|9=57|35=0|34=11|49=CLIENTFIX|52=20230130-08:25:30.324|56=EXEC|10=202|
8=FIX.4.4|9=57|35=0|34=29|49=EXEC|52=20230130-08:25:30.325|56=CLIENTFIX|10=212|
8=FIX.4.4|9=68|35=A|34=30|49=EXEC|52=20230130-08:40:54.425|56=CLIENTFIX|98=0|108=5|10=206|
8=FIX.4.4|9=68|35=A|34=12|49=CLIENTFIX|52=20230130-08:40:54.461|56=EXEC|98=0|108=5|10=206|
8=FIX.4.4|9=57|35=0|34=31|49=EXEC|52=20230130-08:40:59.424|56=CLIENTFIX|10=213|
8=FIX.4.4|9=57|35=0|34=13|49=CLIENTFIX|52=20230130-08:40:59.627|56=EXEC|10=218|
8=FIX.4.4|9=57|35=0|34=32|49=EXEC|52=20230130-08:41:04.422|56=CLIENTFIX|10=203|
8=FIX.4.4|9=57|35=0|34=14|49=CLIENTFIX|52=20230130-08:41:04.624|56=EXEC|10=207|
8=FIX.4.4|9=57|35=0|34=33|49=EXEC|52=20230130-08:41:09.418|56=CLIENTFIX|10=214|
8=FIX.4.4|9=57|35=0|34=15|49=CLIENTFIX|52=20230130-08:41:09.621|56=EXEC|10=210|
8=FIX.4.4|9=57|35=0|34=34|49=EXEC|52=20230130-08:41:14.421|56=CLIENTFIX|10=205|
8=FIX.4.4|9=57|35=0|34=16|49=CLIENTFIX|52=20230130-08:41:14.623|56=EXEC|10=209|
8=FIX.4.4|9=68|35=A|34=35|49=EXEC|52=20230130-08:56:44.985|56=CLIENTFIX|98=0|108=5|10=228|
8=FIX.4.4|9=68|35=A|34=17|49=CLIENTFIX|52=20230130-08:56:45.023|56=EXEC|98=0|108=5|10=212|
8=FIX.4.4|9=57|35=0|34=18|49=CLIENTFIX|52=20230130-08:56:50.237|56=EXEC|10=218|
8=FIX.4.4|9=57|35=0|34=36|49=EXEC|52=20230130-08:56:50.240|56=CLIENTFIX|10=212|
8=FIX.4.4|9=57|35=0|34=19|49=CLIENTFIX|52=20230130-08:56:55.238|56=EXEC|10=225|
8=FIX.4.4|9=57|35=0|34=37|49=EXEC|52=20230130-08:56:55.240|56=CLIENTFIX|10=218|
8=FIX.4.4|9=57|35=0|34=20|49=CLIENTFIX|52=20230130-08:57:00.234|56=EXEC|10=204|
8=FIX.4.4|9=57|35=0|34=38|49=EXEC|52=20230130-08:57:00.236|56=CLIENTFIX|10=215|
8=FIX.4.4|9=57|35=0|34=21|49=CLIENTFIX|52=20230130-08:57:05.226|56=EXEC|10=211|
8=FIX.4.4|9=57|35=0|34=39|49=EXEC|52=20230130-08:57:05.228|56=CLIENTFIX|10=222|
8=FIX.4.4|9=57|35=0|34=22|49=CLIENTFIX|52=20230130-08:57:10.237|56=EXEC|10=210|
8=FIX.4.4|9=57|35=0|34=40|49=EXEC|52=20230130-08:57:10.239|56=CLIENTFIX|10=212|
8=FIX.4.4|9=57|35=0|34=23|49=CLIENTFIX|52=20230130-08:57:15.232|56=EXEC|10=211|
8=FIX.4.4|9=57|35=0|34=41|49=EXEC|52=20230130-08:57:15.233|56=CLIENTFIX|10=212|
8=FIX.4.4|9=57|35=0|34=24|49=CLIENTFIX|52=20230130-08:57:20.237|56=EXEC|10=213|
8=FIX.4.4|9=57|35=0|34=42|49=EXEC|52=20230130-08:57:20.239|56=CLIENTFIX|10=215|
