8=FIX.4.4|9=70|35=A|34=14|49=CLIENT1|52=20230307-04:36:44.299|56=SERVER1|98=0|108=30|10=051|
8=FIX.4.4|9=69|35=A|34=1|49=SERVER1|52=20230307-04:36:44.324|56=CLIENT1|98=0|108=30|10=252|
8=FIX.4.4|9=66|35=2|34=2|49=SERVER1|52=20230307-04:36:44.326|56=CLIENT1|7=1|16=0|10=079|
8=FIX.4.4|9=91|35=TEST|34=1|43=Y|49=CLIENT1|52=20230307-04:36:44.332|56=SERVER1|122=20230307-03:16:25.818|10=223|
8=FIX.4.4|9=91|35=TEST|34=2|43=Y|49=CLIENT1|52=20230307-04:36:44.334|56=SERVER1|122=20230307-03:19:41.190|10=220|
8=FIX.4.4|9=91|35=TEST|34=3|43=Y|49=CLIENT1|52=20230307-04:36:44.334|56=SERVER1|122=20230307-03:20:43.685|10=224|
8=FIX.4.4|9=114|35=3|34=3|49=SERVER1|52=20230307-04:36:44.335|56=CLIENT1|45=1|58=Invalid MsgType, field=35|371=35|372=TEST|373=11|10=192|
8=FIX.4.4|9=91|35=TEST|34=4|43=Y|49=CLIENT1|52=20230307-04:36:44.336|56=SERVER1|122=20230307-03:21:48.918|10=232|
8=FIX.4.4|9=114|35=3|34=4|49=SERVER1|52=20230307-04:36:44.337|56=CLIENT1|45=2|58=Invalid MsgType, field=35|371=35|372=TEST|373=11|10=196|
8=FIX.4.4|9=91|35=TEST|34=5|43=Y|49=CLIENT1|52=20230307-04:36:44.336|56=SERVER1|122=20230307-03:22:42.391|10=223|
8=FIX.4.4|9=114|35=3|34=5|49=SERVER1|52=20230307-04:36:44.337|56=CLIENT1|45=3|58=Invalid MsgType, field=35|371=35|372=TEST|373=11|10=198|
8=FIX.4.4|9=91|35=TEST|34=6|43=Y|49=CLIENT1|52=20230307-04:36:44.337|56=SERVER1|122=20230307-03:27:15.084|10=229|
8=FIX.4.4|9=114|35=3|34=6|49=SERVER1|52=20230307-04:36:44.338|56=CLIENT1|45=4|58=Invalid MsgType, field=35|371=35|372=TEST|373=11|10=201|
8=FIX.4.4|9=91|35=TEST|34=7|43=Y|49=CLIENT1|52=20230307-04:36:44.338|56=SERVER1|122=20230307-04:21:21.940|10=224|
8=FIX.4.4|9=114|35=3|34=7|49=SERVER1|52=20230307-04:36:44.339|56=CLIENT1|45=5|58=Invalid MsgType, field=35|371=35|372=TEST|373=11|10=204|
8=FIX.4.4|9=91|35=TEST|34=8|43=Y|49=CLIENT1|52=20230307-04:36:44.339|56=SERVER1|122=20230307-04:21:39.082|10=232|
8=FIX.4.4|9=114|35=3|34=8|49=SERVER1|52=20230307-04:36:44.341|56=CLIENT1|45=6|58=Invalid MsgType, field=35|371=35|372=TEST|373=11|10=199|
8=FIX.4.4|9=91|35=TEST|34=9|43=Y|49=CLIENT1|52=20230307-04:36:44.340|56=SERVER1|122=20230307-04:23:24.661|10=224|
8=FIX.4.4|9=114|35=3|34=9|49=SERVER1|52=20230307-04:36:44.342|56=CLIENT1|45=7|58=Invalid MsgType, field=35|371=35|372=TEST|373=11|10=202|
8=FIX.4.4|9=92|35=TEST|34=10|43=Y|49=CLIENT1|52=20230307-04:36:44.341|56=SERVER1|122=20230307-04:25:26.697|10=023|
8=FIX.4.4|9=115|35=3|34=10|49=SERVER1|52=20230307-04:36:44.342|56=CLIENT1|45=8|58=Invalid MsgType, field=35|371=35|372=TEST|373=11|10=244|
8=FIX.4.4|9=92|35=TEST|34=11|43=Y|49=CLIENT1|52=20230307-04:36:44.342|56=SERVER1|122=20230307-04:26:19.985|10=028|
8=FIX.4.4|9=115|35=3|34=11|49=SERVER1|52=20230307-04:36:44.343|56=CLIENT1|45=9|58=Invalid MsgType, field=35|371=35|372=TEST|373=11|10=247|
8=FIX.4.4|9=92|35=TEST|34=12|43=Y|49=CLIENT1|52=20230307-04:36:44.343|56=SERVER1|122=20230307-04:35:17.603|10=015|
8=FIX.4.4|9=116|35=3|34=12|49=SERVER1|52=20230307-04:36:44.344|56=CLIENT1|45=10|58=Invalid MsgType, field=35|371=35|372=TEST|373=11|10=034|
8=FIX.4.4|9=92|35=TEST|34=13|43=Y|49=CLIENT1|52=20230307-04:36:44.344|56=SERVER1|122=20230307-04:36:43.285|10=023|
8=FIX.4.4|9=116|35=3|34=13|49=SERVER1|52=20230307-04:36:44.345|56=CLIENT1|45=11|58=Invalid MsgType, field=35|371=35|372=TEST|373=11|10=037|
8=FIX.4.4|9=116|35=3|34=14|49=SERVER1|52=20230307-04:36:44.345|56=CLIENT1|45=12|58=Invalid MsgType, field=35|371=35|372=TEST|373=11|10=039|
8=FIX.4.4|9=101|35=4|34=14|43=Y|49=CLIENT1|52=20230307-04:36:44.346|56=SERVER1|122=20230307-04:36:44.345|36=15|123=Y|10=109|
8=FIX.4.4|9=116|35=3|34=15|49=SERVER1|52=20230307-04:36:44.346|56=CLIENT1|45=13|58=Invalid MsgType, field=35|371=35|372=TEST|373=11|10=042|
8=FIX.4.4|9=70|35=A|34=17|49=CLIENT1|52=20230307-04:39:35.029|56=SERVER1|98=0|108=30|10=048|
8=FIX.4.4|9=70|35=A|34=16|49=SERVER1|52=20230307-04:39:35.053|56=CLIENT1|98=0|108=30|10=044|
8=FIX.4.4|9=68|35=2|34=17|49=SERVER1|52=20230307-04:39:35.055|56=CLIENT1|7=15|16=0|10=190|
8=FIX.4.4|9=92|35=TEST|34=15|43=Y|49=CLIENT1|52=20230307-04:39:35.060|56=SERVER1|122=20230307-04:39:17.174|10=024|
8=FIX.4.4|9=92|35=TEST|34=16|43=Y|49=CLIENT1|52=20230307-04:39:35.060|56=SERVER1|122=20230307-04:39:34.023|10=017|
8=FIX.4.4|9=101|35=4|34=17|43=Y|49=CLIENT1|52=20230307-04:39:35.061|56=SERVER1|122=20230307-04:39:35.061|36=18|123=Y|10=110|
8=FIX.4.4|9=116|35=3|34=18|49=SERVER1|52=20230307-04:39:35.061|56=CLIENT1|45=15|58=Invalid MsgType, field=35|371=35|372=TEST|373=11|10=044|
8=FIX.4.4|9=116|35=3|34=19|49=SERVER1|52=20230307-04:39:35.062|56=CLIENT1|45=16|58=Invalid MsgType, field=35|371=35|372=TEST|373=11|10=047|
8=FIX.4.4|9=70|35=A|34=19|49=CLIENT1|52=20230307-04:42:43.055|56=SERVER1|98=0|108=30|10=042|
8=FIX.4.4|9=70|35=A|34=20|49=SERVER1|52=20230307-04:42:43.078|56=CLIENT1|98=0|108=30|10=039|
8=FIX.4.4|9=68|35=2|34=21|49=SERVER1|52=20230307-04:42:43.080|56=CLIENT1|7=18|16=0|10=179|
8=FIX.4.4|9=92|35=TEST|34=18|43=Y|49=CLIENT1|52=20230307-04:42:43.085|56=SERVER1|122=20230307-04:42:42.041|10=012|
8=FIX.4.4|9=101|35=4|34=19|43=Y|49=CLIENT1|52=20230307-04:42:43.085|56=SERVER1|122=20230307-04:42:43.085|36=20|123=Y|10=103|
8=FIX.4.4|9=116|35=3|34=22|49=SERVER1|52=20230307-04:42:43.086|56=CLIENT1|45=18|58=Invalid MsgType, field=35|371=35|372=TEST|373=11|10=042|
8=FIX.4.4|9=70|35=A|34=21|49=CLIENT1|52=20230307-05:26:08.148|56=SERVER1|98=0|108=30|10=042|
8=FIX.4.4|9=70|35=A|34=23|49=SERVER1|52=20230307-05:26:08.194|56=CLIENT1|98=0|108=30|10=045|
8=FIX.4.4|9=68|35=2|34=24|49=SERVER1|52=20230307-05:26:08.196|56=CLIENT1|7=20|16=0|10=187|
8=FIX.4.4|9=92|35=TEST|34=20|43=Y|49=CLIENT1|52=20230307-05:26:08.201|56=SERVER1|122=20230307-04:43:05.114|10=000|
8=FIX.4.4|9=101|35=4|34=21|43=Y|49=CLIENT1|52=20230307-05:26:08.202|56=SERVER1|122=20230307-05:26:08.202|36=22|123=Y|10=088|
8=FIX.4.4|9=116|35=3|34=25|49=SERVER1|52=20230307-05:26:08.203|56=CLIENT1|45=20|58=Invalid MsgType, field=35|371=35|372=TEST|373=11|10=033|
8=FIX.4.4|9=58|35=0|34=26|49=SERVER1|52=20230307-05:26:39.144|56=CLIENT1|10=011|
8=FIX.4.4|9=58|35=0|34=22|49=CLIENT1|52=20230307-05:26:39.144|56=SERVER1|10=007|
8=FIX.4.4|9=70|35=A|34=23|49=CLIENT1|52=20230307-05:29:24.355|56=SERVER1|98=0|108=30|10=045|
8=FIX.4.4|9=70|35=A|34=27|49=SERVER1|52=20230307-05:29:24.378|56=CLIENT1|98=0|108=30|10=054|
8=FIX.4.4|9=58|35=0|34=28|49=SERVER1|52=20230307-05:29:55.152|56=CLIENT1|10=013|
8=FIX.4.4|9=58|35=0|34=24|49=CLIENT1|52=20230307-05:29:55.154|56=SERVER1|10=011|
8=FIX.4.4|9=58|35=0|34=25|49=CLIENT1|52=20230307-05:30:25.344|56=SERVER1|10=002|
8=FIX.4.4|9=58|35=0|34=29|49=SERVER1|52=20230307-05:30:25.346|56=CLIENT1|10=008|
8=FIX.4.4|9=70|35=A|34=26|49=CLIENT1|52=20230307-06:06:44.981|56=SERVER1|98=0|108=30|10=051|
8=FIX.4.4|9=70|35=A|34=30|49=SERVER1|52=20230307-06:06:45.015|56=CLIENT1|98=0|108=30|10=035|
8=FIX.4.4|9=58|35=0|34=27|49=CLIENT1|52=20230307-06:07:14.989|56=SERVER1|10=022|
8=FIX.4.4|9=58|35=0|34=31|49=SERVER1|52=20230307-06:07:15.144|56=CLIENT1|10=001|
