8=FIX.4.4|9=102|35=A|34=1|49=client|52=20230306-08:59:57.967|56=server|98=0|108=30|141=Y|553=PHSYJDEMOMD|554=Pnpl2022|10=223|
8=FIX.4.4|9=73|35=A|34=1|49=server|52=20230306-08:59:58.010|56=client|98=0|108=30|141=Y|10=071|
8=FIX.4.4|9=96|35=A|34=3|49=client|52=20230306-09:01:40.896|56=server|98=0|108=30|553=PHSYJDEMOMD|554=Pnpl2022|10=125|
8=FIX.4.4|9=67|35=A|34=2|49=server|52=20230306-09:01:40.931|56=client|98=0|108=30|10=021|
8=FIX.4.4|9=64|35=2|34=3|49=server|52=20230306-09:01:40.933|56=client|7=2|16=0|10=105|
8=FIX.4.4|9=128|35=D|34=2|43=Y|49=client|52=20230306-09:01:40.950|56=server|122=20230306-09:00:08.015|11=456|40=1|54=1|60=20230306-09:00:08.014|10=216|
8=FIX.4.4|9=97|35=4|34=3|43=Y|49=client|52=20230306-09:01:40.951|56=server|122=20230306-09:01:40.951|36=4|123=Y|10=250|
8=FIX.4.4|9=113|35=3|34=4|49=server|52=20230306-09:01:40.961|56=client|45=2|58=Required tag missing, field=55|371=55|372=D|373=1|10=186|
8=FIX.4.4|9=55|35=0|34=5|49=server|52=20230306-09:02:11.041|56=client|10=226|
8=FIX.4.4|9=55|35=0|34=4|49=client|52=20230306-09:02:11.050|56=server|10=225|
8=FIX.4.4|9=55|35=0|34=6|49=server|52=20230306-09:02:41.037|56=client|10=235|
8=FIX.4.4|9=55|35=0|34=5|49=client|52=20230306-09:02:41.901|56=server|10=234|
8=FIX.4.4|9=55|35=0|34=7|49=server|52=20230306-09:03:11.038|56=client|10=235|
8=FIX.4.4|9=55|35=0|34=6|49=client|52=20230306-09:03:11.898|56=server|10=248|
8=FIX.4.4|9=55|35=0|34=8|49=server|52=20230306-09:03:41.046|56=client|10=238|
8=FIX.4.4|9=55|35=0|34=7|49=client|52=20230306-09:03:41.903|56=server|10=239|
8=FIX.4.4|9=55|35=0|34=9|49=server|52=20230306-09:04:11.045|56=client|10=236|
8=FIX.4.4|9=55|35=0|34=8|49=client|52=20230306-09:04:11.901|56=server|10=236|
8=FIX.4.4|9=56|35=0|34=10|49=server|52=20230306-09:04:41.038|56=client|10=026|
8=FIX.4.4|9=55|35=0|34=9|49=client|52=20230306-09:04:41.896|56=server|10=253|
8=FIX.4.4|9=56|35=0|34=11|49=server|52=20230306-09:05:11.050|56=client|10=019|
8=FIX.4.4|9=56|35=0|34=10|49=client|52=20230306-09:05:11.909|56=server|10=031|
8=FIX.4.4|9=56|35=0|34=12|49=server|52=20230306-09:05:42.037|56=client|10=029|
8=FIX.4.4|9=56|35=0|34=11|49=client|52=20230306-09:05:42.038|56=server|10=029|
8=FIX.4.4|9=56|35=0|34=13|49=server|52=20230306-09:06:12.048|56=client|10=030|
8=FIX.4.4|9=56|35=0|34=12|49=client|52=20230306-09:06:12.055|56=server|10=027|
8=FIX.4.4|9=56|35=0|34=14|49=server|52=20230306-09:06:42.043|56=client|10=029|
8=FIX.4.4|9=56|35=0|34=13|49=client|52=20230306-09:06:42.906|56=server|10=036|
