8=FIX.4.4|9=70|35=A|34=14|49=CLIENT1|52=20230307-04:36:44.299|56=SERVER1|98=0|108=30|10=051|
8=FIX.4.4|9=69|35=A|34=1|49=SERVER1|52=20230307-04:36:44.324|56=CLIENT1|98=0|108=30|10=252|
8=FIX.4.4|9=66|35=2|34=2|49=SERVER1|52=20230307-04:36:44.326|56=CLIENT1|7=1|16=0|10=079|
8=FIX.4.4|9=91|35=TEST|34=1|43=Y|49=CLIENT1|52=20230307-04:36:44.332|56=SERVER1|122=20230307-03:16:25.818|10=223|
8=FIX.4.4|9=91|35=TEST|34=2|43=Y|49=CLIENT1|52=20230307-04:36:44.334|56=SERVER1|122=20230307-03:19:41.190|10=220|
8=FIX.4.4|9=91|35=TEST|34=3|43=Y|49=CLIENT1|52=20230307-04:36:44.334|56=SERVER1|122=20230307-03:20:43.685|10=224|
8=FIX.4.4|9=114|35=3|34=3|49=SERVER1|52=20230307-04:36:44.335|56=CLIENT1|45=1|58=Invalid MsgType, field=35|371=35|372=TEST|373=11|10=192|
8=FIX.4.4|9=91|35=TEST|34=4|43=Y|49=CLIENT1|52=20230307-04:36:44.336|56=SERVER1|122=20230307-03:21:48.918|10=232|
8=FIX.4.4|9=114|35=3|34=4|49=SERVER1|52=20230307-04:36:44.337|56=CLIENT1|45=2|58=Invalid MsgType, field=35|371=35|372=TEST|373=11|10=196|
8=FIX.4.4|9=91|35=TEST|34=5|43=Y|49=CLIENT1|52=20230307-04:36:44.336|56=SERVER1|122=20230307-03:22:42.391|10=223|
8=FIX.4.4|9=114|35=3|34=5|49=SERVER1|52=20230307-04:36:44.337|56=CLIENT1|45=3|58=Invalid MsgType, field=35|371=35|372=TEST|373=11|10=198|
8=FIX.4.4|9=91|35=TEST|34=6|43=Y|49=CLIENT1|52=20230307-04:36:44.337|56=SERVER1|122=20230307-03:27:15.084|10=229|
8=FIX.4.4|9=114|35=3|34=6|49=SERVER1|52=20230307-04:36:44.338|56=CLIENT1|45=4|58=Invalid MsgType, field=35|371=35|372=TEST|373=11|10=201|
8=FIX.4.4|9=91|35=TEST|34=7|43=Y|49=CLIENT1|52=20230307-04:36:44.338|56=SERVER1|122=20230307-04:21:21.940|10=224|
8=FIX.4.4|9=114|35=3|34=7|49=SERVER1|52=20230307-04:36:44.339|56=CLIENT1|45=5|58=Invalid MsgType, field=35|371=35|372=TEST|373=11|10=204|
8=FIX.4.4|9=91|35=TEST|34=8|43=Y|49=CLIENT1|52=20230307-04:36:44.339|56=SERVER1|122=20230307-04:21:39.082|10=232|
8=FIX.4.4|9=114|35=3|34=8|49=SERVER1|52=20230307-04:36:44.341|56=CLIENT1|45=6|58=Invalid MsgType, field=35|371=35|372=TEST|373=11|10=199|
8=FIX.4.4|9=91|35=TEST|34=9|43=Y|49=CLIENT1|52=20230307-04:36:44.340|56=SERVER1|122=20230307-04:23:24.661|10=224|
8=FIX.4.4|9=114|35=3|34=9|49=SERVER1|52=20230307-04:36:44.342|56=CLIENT1|45=7|58=Invalid MsgType, field=35|371=35|372=TEST|373=11|10=202|
8=FIX.4.4|9=92|35=TEST|34=10|43=Y|49=CLIENT1|52=20230307-04:36:44.341|56=SERVER1|122=20230307-04:25:26.697|10=023|
8=FIX.4.4|9=115|35=3|34=10|49=SERVER1|52=20230307-04:36:44.342|56=CLIENT1|45=8|58=Invalid MsgType, field=35|371=35|372=TEST|373=11|10=244|
8=FIX.4.4|9=92|35=TEST|34=11|43=Y|49=CLIENT1|52=20230307-04:36:44.342|56=SERVER1|122=20230307-04:26:19.985|10=028|
8=FIX.4.4|9=115|35=3|34=11|49=SERVER1|52=20230307-04:36:44.343|56=CLIENT1|45=9|58=Invalid MsgType, field=35|371=35|372=TEST|373=11|10=247|
8=FIX.4.4|9=92|35=TEST|34=12|43=Y|49=CLIENT1|52=20230307-04:36:44.343|56=SERVER1|122=20230307-04:35:17.603|10=015|
8=FIX.4.4|9=116|35=3|34=12|49=SERVER1|52=20230307-04:36:44.344|56=CLIENT1|45=10|58=Invalid MsgType, field=35|371=35|372=TEST|373=11|10=034|
8=FIX.4.4|9=92|35=TEST|34=13|43=Y|49=CLIENT1|52=20230307-04:36:44.344|56=SERVER1|122=20230307-04:36:43.285|10=023|
8=FIX.4.4|9=116|35=3|34=13|49=SERVER1|52=20230307-04:36:44.345|56=CLIENT1|45=11|58=Invalid MsgType, field=35|371=35|372=TEST|373=11|10=037|
8=FIX.4.4|9=116|35=3|34=14|49=SERVER1|52=20230307-04:36:44.345|56=CLIENT1|45=12|58=Invalid MsgType, field=35|371=35|372=TEST|373=11|10=039|
8=FIX.4.4|9=101|35=4|34=14|43=Y|49=CLIENT1|52=20230307-04:36:44.346|56=SERVER1|122=20230307-04:36:44.345|36=15|123=Y|10=109|
8=FIX.4.4|9=116|35=3|34=15|49=SERVER1|52=20230307-04:36:44.346|56=CLIENT1|45=13|58=Invalid MsgType, field=35|371=35|372=TEST|373=11|10=042|
8=FIX.4.4|9=70|35=A|34=17|49=CLIENT1|52=20230307-04:39:35.029|56=SERVER1|98=0|108=30|10=048|
8=FIX.4.4|9=70|35=A|34=16|49=SERVER1|52=20230307-04:39:35.053|56=CLIENT1|98=0|108=30|10=044|
8=FIX.4.4|9=68|35=2|34=17|49=SERVER1|52=20230307-04:39:35.055|56=CLIENT1|7=15|16=0|10=190|
8=FIX.4.4|9=92|35=TEST|34=15|43=Y|49=CLIENT1|52=20230307-04:39:35.060|56=SERVER1|122=20230307-04:39:17.174|10=024|
8=FIX.4.4|9=92|35=TEST|34=16|43=Y|49=CLIENT1|52=20230307-04:39:35.060|56=SERVER1|122=20230307-04:39:34.023|10=017|
8=FIX.4.4|9=101|35=4|34=17|43=Y|49=CLIENT1|52=20230307-04:39:35.061|56=SERVER1|122=20230307-04:39:35.061|36=18|123=Y|10=110|
8=FIX.4.4|9=116|35=3|34=18|49=SERVER1|52=20230307-04:39:35.061|56=CLIENT1|45=15|58=Invalid MsgType, field=35|371=35|372=TEST|373=11|10=044|
8=FIX.4.4|9=116|35=3|34=19|49=SERVER1|52=20230307-04:39:35.062|56=CLIENT1|45=16|58=Invalid MsgType, field=35|371=35|372=TEST|373=11|10=047|
8=FIX.4.4|9=70|35=A|34=19|49=CLIENT1|52=20230307-04:42:43.055|56=SERVER1|98=0|108=30|10=042|
8=FIX.4.4|9=70|35=A|34=20|49=SERVER1|52=20230307-04:42:43.078|56=CLIENT1|98=0|108=30|10=039|
8=FIX.4.4|9=68|35=2|34=21|49=SERVER1|52=20230307-04:42:43.080|56=CLIENT1|7=18|16=0|10=179|
8=FIX.4.4|9=92|35=TEST|34=18|43=Y|49=CLIENT1|52=20230307-04:42:43.085|56=SERVER1|122=20230307-04:42:42.041|10=012|
8=FIX.4.4|9=101|35=4|34=19|43=Y|49=CLIENT1|52=20230307-04:42:43.085|56=SERVER1|122=20230307-04:42:43.085|36=20|123=Y|10=103|
8=FIX.4.4|9=116|35=3|34=22|49=SERVER1|52=20230307-04:42:43.086|56=CLIENT1|45=18|58=Invalid MsgType, field=35|371=35|372=TEST|373=11|10=042|
8=FIX.4.4|9=70|35=A|34=21|49=CLIENT1|52=20230307-05:26:08.148|56=SERVER1|98=0|108=30|10=042|
8=FIX.4.4|9=70|35=A|34=23|49=SERVER1|52=20230307-05:26:08.194|56=CLIENT1|98=0|108=30|10=045|
8=FIX.4.4|9=68|35=2|34=24|49=SERVER1|52=20230307-05:26:08.196|56=CLIENT1|7=20|16=0|10=187|
8=FIX.4.4|9=92|35=TEST|34=20|43=Y|49=CLIENT1|52=20230307-05:26:08.201|56=SERVER1|122=20230307-04:43:05.114|10=000|
8=FIX.4.4|9=101|35=4|34=21|43=Y|49=CLIENT1|52=20230307-05:26:08.202|56=SERVER1|122=20230307-05:26:08.202|36=22|123=Y|10=088|
8=FIX.4.4|9=116|35=3|34=25|49=SERVER1|52=20230307-05:26:08.203|56=CLIENT1|45=20|58=Invalid MsgType, field=35|371=35|372=TEST|373=11|10=033|
8=FIX.4.4|9=58|35=0|34=26|49=SERVER1|52=20230307-05:26:39.144|56=CLIENT1|10=011|
8=FIX.4.4|9=58|35=0|34=22|49=CLIENT1|52=20230307-05:26:39.144|56=SERVER1|10=007|
8=FIX.4.4|9=70|35=A|34=23|49=CLIENT1|52=20230307-05:29:24.355|56=SERVER1|98=0|108=30|10=045|
8=FIX.4.4|9=70|35=A|34=27|49=SERVER1|52=20230307-05:29:24.378|56=CLIENT1|98=0|108=30|10=054|
8=FIX.4.4|9=58|35=0|34=28|49=SERVER1|52=20230307-05:29:55.152|56=CLIENT1|10=013|
8=FIX.4.4|9=58|35=0|34=24|49=CLIENT1|52=20230307-05:29:55.154|56=SERVER1|10=011|
8=FIX.4.4|9=58|35=0|34=25|49=CLIENT1|52=20230307-05:30:25.344|56=SERVER1|10=002|
8=FIX.4.4|9=58|35=0|34=29|49=SERVER1|52=20230307-05:30:25.346|56=CLIENT1|10=008|
8=FIX.4.4|9=70|35=A|34=26|49=CLIENT1|52=20230307-06:06:44.981|56=SERVER1|98=0|108=30|10=051|
8=FIX.4.4|9=70|35=A|34=30|49=SERVER1|52=20230307-06:06:45.015|56=CLIENT1|98=0|108=30|10=035|
8=FIX.4.4|9=58|35=0|34=27|49=CLIENT1|52=20230307-06:07:14.989|56=SERVER1|10=022|
8=FIX.4.4|9=58|35=0|34=31|49=SERVER1|52=20230307-06:07:15.144|56=CLIENT1|10=001|
8=FIX.4.4|9=69|35=A|34=1|49=CLIENT1|52=20230308-16:21:53.957|56=SERVER1|98=0|108=30|10=006|
8=FIX.4.4|9=69|35=A|34=1|49=SERVER1|52=20230308-16:21:53.997|56=CLIENT1|98=0|108=30|10=010|
8=FIX.4.4|9=57|35=0|34=2|49=CLIENT1|52=20230308-16:22:23.950|56=SERVER1|10=209|
8=FIX.4.4|9=57|35=0|34=2|49=SERVER1|52=20230308-16:22:24.399|56=CLIENT1|10=217|
8=FIX.4.4|9=57|35=0|34=3|49=CLIENT1|52=20230308-16:22:53.958|56=SERVER1|10=221|
8=FIX.4.4|9=57|35=0|34=3|49=SERVER1|52=20230308-16:22:54.396|56=CLIENT1|10=218|
8=FIX.4.4|9=57|35=0|34=4|49=CLIENT1|52=20230308-16:23:23.951|56=SERVER1|10=213|
8=FIX.4.4|9=57|35=0|34=4|49=SERVER1|52=20230308-16:23:24.402|56=CLIENT1|10=205|
8=FIX.4.4|9=57|35=0|34=5|49=CLIENT1|52=20230308-16:23:53.956|56=SERVER1|10=222|
8=FIX.4.4|9=57|35=0|34=5|49=SERVER1|52=20230308-16:23:55.392|56=CLIENT1|10=218|
8=FIX.4.4|9=57|35=0|34=6|49=CLIENT1|52=20230308-16:24:24.951|56=SERVER1|10=217|
8=FIX.4.4|9=57|35=0|34=6|49=SERVER1|52=20230308-16:24:25.394|56=CLIENT1|10=219|
8=FIX.4.4|9=57|35=0|34=7|49=CLIENT1|52=20230308-16:24:54.950|56=SERVER1|10=220|
8=FIX.4.4|9=57|35=0|34=7|49=SERVER1|52=20230308-16:24:55.402|56=CLIENT1|10=213|
8=FIX.4.4|9=57|35=0|34=8|49=CLIENT1|52=20230308-16:25:24.956|56=SERVER1|10=225|
8=FIX.4.4|9=57|35=0|34=8|49=SERVER1|52=20230308-16:25:25.393|56=CLIENT1|10=221|
8=FIX.4.4|9=57|35=0|34=9|49=CLIENT1|52=20230308-16:25:54.955|56=SERVER1|10=228|
8=FIX.4.4|9=57|35=0|34=9|49=SERVER1|52=20230308-16:25:55.392|56=CLIENT1|10=224|
8=FIX.4.4|9=58|35=0|34=10|49=SERVER1|52=20230308-16:26:25.401|56=CLIENT1|10=254|
8=FIX.4.4|9=58|35=0|34=10|49=CLIENT1|52=20230308-16:26:25.406|56=SERVER1|10=003|
8=FIX.4.4|9=58|35=0|34=11|49=SERVER1|52=20230308-16:26:55.402|56=CLIENT1|10=003|
8=FIX.4.4|9=58|35=0|34=11|49=CLIENT1|52=20230308-16:26:55.408|56=SERVER1|10=009|
8=FIX.4.4|9=58|35=0|34=12|49=SERVER1|52=20230308-16:27:25.396|56=CLIENT1|10=014|
8=FIX.4.4|9=58|35=0|34=12|49=CLIENT1|52=20230308-16:27:25.958|56=SERVER1|10=018|
8=FIX.4.4|9=58|35=0|34=13|49=SERVER1|52=20230308-16:27:55.395|56=CLIENT1|10=017|
8=FIX.4.4|9=58|35=0|34=13|49=CLIENT1|52=20230308-16:27:55.957|56=SERVER1|10=021|
8=FIX.4.4|9=58|35=0|34=14|49=SERVER1|52=20230308-16:28:25.402|56=CLIENT1|10=005|
8=FIX.4.4|9=58|35=0|34=14|49=CLIENT1|52=20230308-16:28:25.950|56=SERVER1|10=013|
8=FIX.4.4|9=58|35=0|34=15|49=SERVER1|52=20230308-16:28:55.403|56=CLIENT1|10=010|
8=FIX.4.4|9=58|35=0|34=15|49=CLIENT1|52=20230308-16:28:55.950|56=SERVER1|10=017|
8=FIX.4.4|9=58|35=0|34=16|49=SERVER1|52=20230308-16:29:25.399|56=CLIENT1|10=023|
8=FIX.4.4|9=58|35=0|34=16|49=CLIENT1|52=20230308-16:29:25.947|56=SERVER1|10=022|
8=FIX.4.4|9=58|35=0|34=17|49=SERVER1|52=20230308-16:29:55.397|56=CLIENT1|10=025|
8=FIX.4.4|9=58|35=0|34=17|49=CLIENT1|52=20230308-16:29:55.949|56=SERVER1|10=028|
8=FIX.4.4|9=58|35=0|34=18|49=SERVER1|52=20230308-16:30:25.397|56=CLIENT1|10=015|
8=FIX.4.4|9=58|35=0|34=18|49=CLIENT1|52=20230308-16:30:25.957|56=SERVER1|10=017|
8=FIX.4.4|9=58|35=0|34=19|49=SERVER1|52=20230308-16:30:55.397|56=CLIENT1|10=019|
8=FIX.4.4|9=58|35=0|34=19|49=CLIENT1|52=20230308-16:30:55.957|56=SERVER1|10=021|
8=FIX.4.4|9=58|35=0|34=20|49=SERVER1|52=20230308-16:31:25.398|56=CLIENT1|10=010|
8=FIX.4.4|9=58|35=0|34=20|49=CLIENT1|52=20230308-16:31:25.948|56=SERVER1|10=011|
8=FIX.4.4|9=58|35=0|34=21|49=SERVER1|52=20230308-16:31:55.403|56=CLIENT1|10=001|
8=FIX.4.4|9=58|35=0|34=21|49=CLIENT1|52=20230308-16:31:55.954|56=SERVER1|10=012|
8=FIX.4.4|9=58|35=0|34=22|49=SERVER1|52=20230308-16:32:25.401|56=CLIENT1|10=254|
8=FIX.4.4|9=58|35=0|34=22|49=CLIENT1|52=20230308-16:32:25.958|56=SERVER1|10=015|
8=FIX.4.4|9=58|35=0|34=23|49=SERVER1|52=20230308-16:32:55.406|56=CLIENT1|10=007|
8=FIX.4.4|9=58|35=0|34=23|49=CLIENT1|52=20230308-16:32:55.956|56=SERVER1|10=017|
8=FIX.4.4|9=58|35=0|34=24|49=SERVER1|52=20230308-16:33:25.399|56=CLIENT1|10=017|
8=FIX.4.4|9=58|35=0|34=24|49=CLIENT1|52=20230308-16:33:25.948|56=SERVER1|10=017|
8=FIX.4.4|9=58|35=0|34=25|49=SERVER1|52=20230308-16:33:55.393|56=CLIENT1|10=015|
8=FIX.4.4|9=58|35=0|34=25|49=CLIENT1|52=20230308-16:33:55.956|56=SERVER1|10=020|
8=FIX.4.4|9=58|35=0|34=26|49=SERVER1|52=20230308-16:34:25.398|56=CLIENT1|10=019|
8=FIX.4.4|9=58|35=0|34=26|49=CLIENT1|52=20230308-16:34:25.951|56=SERVER1|10=014|
8=FIX.4.4|9=58|35=0|34=27|49=SERVER1|52=20230308-16:34:55.400|56=CLIENT1|10=007|
8=FIX.4.4|9=58|35=0|34=27|49=CLIENT1|52=20230308-16:34:55.946|56=SERVER1|10=022|
8=FIX.4.4|9=58|35=0|34=28|49=SERVER1|52=20230308-16:35:25.398|56=CLIENT1|10=022|
8=FIX.4.4|9=58|35=0|34=28|49=CLIENT1|52=20230308-16:35:25.951|56=SERVER1|10=017|
8=FIX.4.4|9=58|35=0|34=29|49=SERVER1|52=20230308-16:35:55.402|56=CLIENT1|10=012|
8=FIX.4.4|9=58|35=0|34=29|49=CLIENT1|52=20230308-16:35:55.950|56=SERVER1|10=020|
8=FIX.4.4|9=58|35=0|34=30|49=SERVER1|52=20230308-16:36:25.395|56=CLIENT1|10=013|
8=FIX.4.4|9=58|35=0|34=30|49=CLIENT1|52=20230308-16:36:25.955|56=SERVER1|10=015|
8=FIX.4.4|9=58|35=0|34=31|49=SERVER1|52=20230308-16:36:55.403|56=CLIENT1|10=007|
8=FIX.4.4|9=58|35=0|34=31|49=CLIENT1|52=20230308-16:36:55.955|56=SERVER1|10=019|
8=FIX.4.4|9=58|35=0|34=32|49=SERVER1|52=20230308-16:37:25.400|56=CLIENT1|10=003|
8=FIX.4.4|9=58|35=0|34=32|49=CLIENT1|52=20230308-16:37:25.958|56=SERVER1|10=021|
8=FIX.4.4|9=58|35=0|34=33|49=SERVER1|52=20230308-16:37:55.403|56=CLIENT1|10=010|
8=FIX.4.4|9=58|35=0|34=33|49=CLIENT1|52=20230308-16:37:55.955|56=SERVER1|10=022|
8=FIX.4.4|9=58|35=0|34=34|49=SERVER1|52=20230308-16:38:25.398|56=CLIENT1|10=022|
8=FIX.4.4|9=58|35=0|34=34|49=CLIENT1|52=20230308-16:38:25.956|56=SERVER1|10=022|
8=FIX.4.4|9=58|35=0|34=35|49=SERVER1|52=20230308-16:38:55.401|56=CLIENT1|10=011|
8=FIX.4.4|9=58|35=0|34=35|49=CLIENT1|52=20230308-16:38:55.951|56=SERVER1|10=021|
8=FIX.4.4|9=58|35=0|34=36|49=SERVER1|52=20230308-16:39:25.392|56=CLIENT1|10=019|
8=FIX.4.4|9=58|35=0|34=36|49=CLIENT1|52=20230308-16:39:25.956|56=SERVER1|10=025|
8=FIX.4.4|9=58|35=0|34=37|49=SERVER1|52=20230308-16:39:55.390|56=CLIENT1|10=021|
8=FIX.4.4|9=58|35=0|34=37|49=CLIENT1|52=20230308-16:39:55.949|56=SERVER1|10=031|
8=FIX.4.4|9=58|35=0|34=38|49=SERVER1|52=20230308-16:40:25.395|56=CLIENT1|10=016|
8=FIX.4.4|9=58|35=0|34=38|49=CLIENT1|52=20230308-16:40:25.956|56=SERVER1|10=019|
8=FIX.4.4|9=58|35=0|34=39|49=SERVER1|52=20230308-16:40:55.395|56=CLIENT1|10=020|
8=FIX.4.4|9=58|35=0|34=39|49=CLIENT1|52=20230308-16:40:55.959|56=SERVER1|10=026|
8=FIX.4.4|9=58|35=0|34=40|49=SERVER1|52=20230308-16:41:25.393|56=CLIENT1|10=008|
8=FIX.4.4|9=58|35=0|34=40|49=CLIENT1|52=20230308-16:41:26.949|56=SERVER1|10=016|
8=FIX.4.4|9=58|35=0|34=41|49=SERVER1|52=20230308-16:41:55.399|56=CLIENT1|10=018|
8=FIX.4.4|9=58|35=0|34=41|49=CLIENT1|52=20230308-16:41:56.959|56=SERVER1|10=021|
8=FIX.4.4|9=58|35=0|34=42|49=SERVER1|52=20230308-16:42:25.398|56=CLIENT1|10=016|
8=FIX.4.4|9=58|35=0|34=42|49=CLIENT1|52=20230308-16:42:27.950|56=SERVER1|10=012|
8=FIX.4.4|9=58|35=0|34=43|49=SERVER1|52=20230308-16:42:55.404|56=CLIENT1|10=008|
8=FIX.4.4|9=58|35=0|34=43|49=CLIENT1|52=20230308-16:42:57.954|56=SERVER1|10=020|
8=FIX.4.4|9=58|35=0|34=44|49=SERVER1|52=20230308-16:43:25.399|56=CLIENT1|10=020|
8=FIX.4.4|9=58|35=0|34=44|49=CLIENT1|52=20230308-16:43:27.953|56=SERVER1|10=018|
8=FIX.4.4|9=58|35=0|34=45|49=SERVER1|52=20230308-16:43:55.394|56=CLIENT1|10=019|
8=FIX.4.4|9=58|35=0|34=45|49=CLIENT1|52=20230308-16:43:57.946|56=SERVER1|10=024|
8=FIX.4.4|9=58|35=0|34=46|49=SERVER1|52=20230308-16:44:25.401|56=CLIENT1|10=007|
8=FIX.4.4|9=58|35=0|34=46|49=CLIENT1|52=20230308-16:44:27.954|56=SERVER1|10=022|
8=FIX.4.4|9=58|35=0|34=47|49=SERVER1|52=20230308-16:44:55.399|56=CLIENT1|10=027|
8=FIX.4.4|9=58|35=0|34=47|49=CLIENT1|52=20230308-16:44:57.956|56=SERVER1|10=028|
8=FIX.4.4|9=58|35=0|34=48|49=SERVER1|52=20230308-16:45:25.404|56=CLIENT1|10=013|
8=FIX.4.4|9=58|35=0|34=48|49=CLIENT1|52=20230308-16:45:27.948|56=SERVER1|10=028|
8=FIX.4.4|9=58|35=0|34=49|49=SERVER1|52=20230308-16:45:55.401|56=CLIENT1|10=014|
8=FIX.4.4|9=58|35=0|34=49|49=CLIENT1|52=20230308-16:45:57.952|56=SERVER1|10=027|
8=FIX.4.4|9=58|35=0|34=50|49=SERVER1|52=20230308-16:46:25.398|56=CLIENT1|10=019|
8=FIX.4.4|9=58|35=0|34=50|49=CLIENT1|52=20230308-16:46:27.948|56=SERVER1|10=022|
8=FIX.4.4|9=58|35=0|34=51|49=SERVER1|52=20230308-16:46:55.404|56=CLIENT1|10=011|
8=FIX.4.4|9=58|35=0|34=51|49=CLIENT1|52=20230308-16:46:57.945|56=SERVER1|10=023|
8=FIX.4.4|9=58|35=0|34=52|49=SERVER1|52=20230308-16:47:25.403|56=CLIENT1|10=009|
8=FIX.4.4|9=58|35=0|34=52|49=CLIENT1|52=20230308-16:47:27.958|56=SERVER1|10=026|
8=FIX.4.4|9=58|35=0|34=53|49=SERVER1|52=20230308-16:47:55.404|56=CLIENT1|10=014|
8=FIX.4.4|9=58|35=0|34=53|49=CLIENT1|52=20230308-16:47:58.945|56=SERVER1|10=027|
8=FIX.4.4|9=58|35=0|34=54|49=SERVER1|52=20230308-16:48:25.403|56=CLIENT1|10=012|
8=FIX.4.4|9=58|35=0|34=54|49=CLIENT1|52=20230308-16:48:28.948|56=SERVER1|10=029|
8=FIX.4.4|9=58|35=0|34=55|49=SERVER1|52=20230308-16:48:55.399|56=CLIENT1|10=030|
8=FIX.4.4|9=58|35=0|34=55|49=CLIENT1|52=20230308-16:48:58.957|56=SERVER1|10=033|
8=FIX.4.4|9=58|35=0|34=56|49=SERVER1|52=20230308-16:49:25.390|56=CLIENT1|10=020|
8=FIX.4.4|9=58|35=0|34=56|49=CLIENT1|52=20230308-16:49:28.952|56=SERVER1|10=027|
8=FIX.4.4|9=58|35=0|34=57|49=SERVER1|52=20230308-16:49:55.397|56=CLIENT1|10=031|
8=FIX.4.4|9=58|35=0|34=57|49=CLIENT1|52=20230308-16:49:58.949|56=SERVER1|10=037|
8=FIX.4.4|9=58|35=0|34=58|49=SERVER1|52=20230308-16:50:25.393|56=CLIENT1|10=017|
8=FIX.4.4|9=58|35=0|34=58|49=CLIENT1|52=20230308-16:50:28.952|56=SERVER1|10=021|
8=FIX.4.4|9=58|35=0|34=59|49=SERVER1|52=20230308-16:50:55.393|56=CLIENT1|10=021|
8=FIX.4.4|9=58|35=0|34=59|49=CLIENT1|52=20230308-16:50:58.950|56=SERVER1|10=023|
8=FIX.4.4|9=58|35=0|34=60|49=SERVER1|52=20230308-16:51:25.401|56=CLIENT1|10=001|
8=FIX.4.4|9=58|35=0|34=60|49=CLIENT1|52=20230308-16:51:28.948|56=SERVER1|10=020|
8=FIX.4.4|9=58|35=0|34=61|49=SERVER1|52=20230308-16:51:56.402|56=CLIENT1|10=007|
8=FIX.4.4|9=58|35=0|34=61|49=CLIENT1|52=20230308-16:51:58.950|56=SERVER1|10=017|
8=FIX.4.4|9=58|35=0|34=62|49=SERVER1|52=20230308-16:52:26.393|56=CLIENT1|10=015|
8=FIX.4.4|9=58|35=0|34=62|49=CLIENT1|52=20230308-16:52:28.950|56=SERVER1|10=016|
8=FIX.4.4|9=58|35=0|34=63|49=SERVER1|52=20230308-16:52:56.391|56=CLIENT1|10=017|
8=FIX.4.4|9=58|35=0|34=63|49=CLIENT1|52=20230308-16:52:58.960|56=SERVER1|10=021|
8=FIX.4.4|9=58|35=0|34=64|49=SERVER1|52=20230308-16:53:26.403|56=CLIENT1|10=010|
8=FIX.4.4|9=58|35=0|34=64|49=CLIENT1|52=20230308-16:53:28.954|56=SERVER1|10=023|
8=FIX.4.4|9=58|35=0|34=65|49=SERVER1|52=20230308-16:53:56.404|56=CLIENT1|10=015|
8=FIX.4.4|9=58|35=0|34=65|49=CLIENT1|52=20230308-16:53:58.947|56=SERVER1|10=029|
8=FIX.4.4|9=58|35=0|34=66|49=SERVER1|52=20230308-16:54:26.401|56=CLIENT1|10=011|
8=FIX.4.4|9=58|35=0|34=66|49=CLIENT1|52=20230308-16:54:28.959|56=SERVER1|10=031|
8=FIX.4.4|9=58|35=0|34=67|49=SERVER1|52=20230308-16:54:56.395|56=CLIENT1|10=027|
8=FIX.4.4|9=58|35=0|34=67|49=CLIENT1|52=20230308-16:54:58.956|56=SERVER1|10=032|
8=FIX.4.4|9=58|35=0|34=68|49=SERVER1|52=20230308-16:55:26.401|56=CLIENT1|10=014|
8=FIX.4.4|9=58|35=0|34=68|49=CLIENT1|52=20230308-16:55:28.949|56=SERVER1|10=033|
8=FIX.4.4|9=58|35=0|34=69|49=SERVER1|52=20230308-16:55:56.403|56=CLIENT1|10=020|
8=FIX.4.4|9=58|35=0|34=69|49=CLIENT1|52=20230308-16:55:58.954|56=SERVER1|10=033|
8=FIX.4.4|9=58|35=0|34=70|49=SERVER1|52=20230308-16:56:26.399|56=CLIENT1|10=024|
8=FIX.4.4|9=58|35=0|34=70|49=CLIENT1|52=20230308-16:56:28.948|56=SERVER1|10=026|
8=FIX.4.4|9=58|35=0|34=71|49=SERVER1|52=20230308-16:56:56.396|56=CLIENT1|10=025|
8=FIX.4.4|9=58|35=0|34=71|49=CLIENT1|52=20230308-16:56:58.945|56=SERVER1|10=027|
8=FIX.4.4|9=58|35=0|34=72|49=SERVER1|52=20230308-16:57:26.403|56=CLIENT1|10=013|
8=FIX.4.4|9=58|35=0|34=72|49=CLIENT1|52=20230308-16:57:28.957|56=SERVER1|10=029|
8=FIX.4.4|9=58|35=0|34=73|49=SERVER1|52=20230308-16:57:56.400|56=CLIENT1|10=014|
8=FIX.4.4|9=58|35=0|34=73|49=CLIENT1|52=20230308-16:57:59.948|56=SERVER1|10=034|
8=FIX.4.4|9=58|35=0|34=74|49=SERVER1|52=20230308-16:58:26.402|56=CLIENT1|10=015|
8=FIX.4.4|9=58|35=0|34=74|49=CLIENT1|52=20230308-16:58:29.955|56=SERVER1|10=031|
8=FIX.4.4|9=58|35=0|34=75|49=SERVER1|52=20230308-16:58:56.403|56=CLIENT1|10=020|
8=FIX.4.4|9=58|35=0|34=75|49=CLIENT1|52=20230308-16:58:59.951|56=SERVER1|10=031|
