8=FIX.4.4|9=67|35=A|34=1|49=client|52=20230131-06:52:22.217|56=server|98=0|108=30|10=016|8=FIX.4.4|9=97|35=D|34=2|49=client|52=20230131-06:52:22.493|56=server|11=342|40=1|54=1|60=20230131-06:52:22.493|10=184|8=FIX.4.4|9=67|35=A|34=3|49=client|52=20230131-06:53:06.344|56=server|98=0|108=30|10=022|8=FIX.4.4|9=55|35=0|34=4|49=client|52=20230131-06:53:36.336|56=server|10=238|8=FIX.4.4|9=55|35=0|34=5|49=client|52=20230131-06:54:06.337|56=server|10=238|8=FIX.4.4|9=55|35=0|34=6|49=client|52=20230131-06:54:36.332|56=server|10=237|8=FIX.4.4|9=55|35=0|34=7|49=client|52=20230131-06:55:06.342|56=server|10=237|8=FIX.4.4|9=55|35=0|34=8|49=client|52=20230131-06:55:36.333|56=server|10=241|8=FIX.4.4|9=55|35=0|34=9|49=client|52=20230131-06:56:06.333|56=server|10=240|8=FIX.4.4|9=56|35=0|34=10|49=client|52=20230131-06:56:36.341|56=server|10=027|8=FIX.4.4|9=56|35=0|34=11|49=client|52=20230131-06:57:06.341|56=server|10=026|