8=FIX.4.4|9=67|35=A|34=1|49=server|52=20230130-09:20:07.647|56=client|98=0|108=30|10=023|8=FIX.4.4|9=55|35=0|34=2|49=server|52=20230130-09:20:37.748|56=client|10=240|8=FIX.4.4|9=55|35=0|34=3|49=server|52=20230130-09:21:07.746|56=client|10=237|